{
  "_format": "hh-sol-artifact-1",
  "contractName": "NFTMarketplace",
  "sourceName": "contracts/NFTMarketplace.sol",
  "abi": [
    {
      "inputs": [
        {
          "internalType": "uint256",
          "name": "_nftId",
          "type": "uint256"
        }
      ],
      "name": "buyNFT",
      "outputs": [],
      "stateMutability": "payable",
      "type": "function"
    },
    {
      "inputs": [],
      "name": "getNFTs",
      "outputs": [
        {
          "components": [
            {
              "internalType": "uint256",
              "name": "id",
              "type": "uint256"
            },
            {
              "internalType": "string",
              "name": "name",
              "type": "string"
            },
            {
              "internalType": "string",
              "name": "description",
              "type": "string"
            },
            {
              "internalType": "uint256",
              "name": "price",
              "type": "uint256"
            },
            {
              "internalType": "address payable",
              "name": "owner",
              "type": "address"
            },
            {
              "internalType": "string",
              "name": "imageUrl",
              "type": "string"
            },
            {
              "internalType": "bool",
              "name": "isForSale",
              "type": "bool"
            }
          ],
          "internalType": "struct NFTMarketplace.NFT[]",
          "name": "",
          "type": "tuple[]"
        }
      ],
      "stateMutability": "view",
      "type": "function"
    },
    {
      "inputs": [
        {
          "internalType": "string",
          "name": "_name",
          "type": "string"
        },
        {
          "internalType": "string",
          "name": "_description",
          "type": "string"
        },
        {
          "internalType": "uint256",
          "name": "_price",
          "type": "uint256"
        },
        {
          "internalType": "string",
          "name": "_imageUrl",
          "type": "string"
        }
      ],
      "name": "listNFT",
      "outputs": [],
      "stateMutability": "nonpayable",
      "type": "function"
    },
    {
      "inputs": [],
      "name": "nftCount",
      "outputs": [
        {
          "internalType": "uint256",
          "name": "",
          "type": "uint256"
        }
      ],
      "stateMutability": "view",
      "type": "function"
    },
    {
      "inputs": [
        {
          "internalType": "uint256",
          "name": "",
          "type": "uint256"
        }
      ],
      "name": "nfts",
      "outputs": [
        {
          "internalType": "uint256",
          "name": "id",
          "type": "uint256"
        },
        {
          "internalType": "string",
          "name": "name",
          "type": "string"
        },
        {
          "internalType": "string",
          "name": "description",
          "type": "string"
        },
        {
          "internalType": "uint256",
          "name": "price",
          "type": "uint256"
        },
        {
          "internalType": "address payable",
          "name": "owner",
          "type": "address"
        },
        {
          "internalType": "string",
          "name": "imageUrl",
          "type": "string"
        },
        {
          "internalType": "bool",
          "name": "isForSale",
          "type": "bool"
        }
      ],
      "stateMutability": "view",
      "type": "function"
    }
  ],
  "bytecode": "0x6080604052600060015534801561001557600080fd5b506111d4806100256000396000f3fe60806040526004361061004a5760003560e01c80630af2c6ca1461004f578063227212f21461007a578063265aa621146100a557806351ed8288146100e85780638d599f3d14610104575b600080fd5b34801561005b57600080fd5b5061006461012d565b6040516100719190610e7e565b60405180910390f35b34801561008657600080fd5b5061008f610133565b60405161009c9190610dfc565b60405180910390f35b3480156100b157600080fd5b506100cc60048036038101906100c79190610b14565b6103cd565b6040516100df9796959493929190610e99565b60405180910390f35b61010260048036038101906100fd9190610b14565b6105e4565b005b34801561011057600080fd5b5061012b60048036038101906101269190610a69565b61079b565b005b60015481565b60606000805480602002602001604051908101604052809291908181526020016000905b828210156103c457838290600052602060002090600702016040518060e0016040529081600082015481526020016001820180546101949061106e565b80601f01602080910402602001604051908101604052809291908181526020018280546101c09061106e565b801561020d5780601f106101e25761010080835404028352916020019161020d565b820191906000526020600020905b8154815290600101906020018083116101f057829003601f168201915b505050505081526020016002820180546102269061106e565b80601f01602080910402602001604051908101604052809291908181526020018280546102529061106e565b801561029f5780601f106102745761010080835404028352916020019161029f565b820191906000526020600020905b81548152906001019060200180831161028257829003601f168201915b50505050508152602001600382015481526020016004820160009054906101000a900473ffffffffffffffffffffffffffffffffffffffff1673ffffffffffffffffffffffffffffffffffffffff1673ffffffffffffffffffffffffffffffffffffffff1681526020016005820180546103189061106e565b80601f01602080910402602001604051908101604052809291908181526020018280546103449061106e565b80156103915780601f1061036657610100808354040283529160200191610391565b820191906000526020600020905b81548152906001019060200180831161037457829003601f168201915b505050505081526020016006820160009054906101000a900460ff16151515158152505081526020019060010190610157565b50505050905090565b600081815481106103dd57600080fd5b90600052602060002090600702016000915090508060000154908060010180546104069061106e565b80601f01602080910402602001604051908101604052809291908181526020018280546104329061106e565b801561047f5780601f106104545761010080835404028352916020019161047f565b820191906000526020600020905b81548152906001019060200180831161046257829003601f168201915b5050505050908060020180546104949061106e565b80601f01602080910402602001604051908101604052809291908181526020018280546104c09061106e565b801561050d5780601f106104e25761010080835404028352916020019161050d565b820191906000526020600020905b8154815290600101906020018083116104f057829003601f168201915b5050505050908060030154908060040160009054906101000a900473ffffffffffffffffffffffffffffffffffffffff169080600501805461054e9061106e565b80601f016020809104026020016040519081016040528092919081815260200182805461057a9061106e565b80156105c75780601f1061059c576101008083540402835291602001916105c7565b820191906000526020600020905b8154815290600101906020018083116105aa57829003601f168201915b5050505050908060060160009054906101000a900460ff16905087565b600080828154811061061f577f4e487b7100000000000000000000000000000000000000000000000000000000600052603260045260246000fd5b906000526020600020906007020190508060060160009054906101000a900460ff16610680576040517f08c379a000000000000000000000000000000000000000000000000000000000815260040161067790610e3e565b60405180910390fd5b806003015434146106c6576040517f08c379a00000000000000000000000000000000000000000000000000000000081526004016106bd90610e1e565b60405180910390fd5b60008160040160009054906101000a900473ffffffffffffffffffffffffffffffffffffffff169050338260040160006101000a81548173ffffffffffffffffffffffffffffffffffffffff021916908373ffffffffffffffffffffffffffffffffffffffff16021790555060008260060160006101000a81548160ff0219169083151502179055508073ffffffffffffffffffffffffffffffffffffffff166108fc349081150290604051600060405180830381858888f19350505050158015610795573d6000803e3d6000fd5b50505050565b600082116107de576040517f08c379a00000000000000000000000000000000000000000000000000000000081526004016107d590610e5e565b60405180910390fd5b60006040518060e0016040528060015481526020018681526020018581526020018481526020013373ffffffffffffffffffffffffffffffffffffffff16815260200183815260200160011515815250908060018154018082558091505060019003906000526020600020906007020160009091909190915060008201518160000155602082015181600101908051906020019061087d929190610949565b50604082015181600201908051906020019061089a929190610949565b506060820151816003015560808201518160040160006101000a81548173ffffffffffffffffffffffffffffffffffffffff021916908373ffffffffffffffffffffffffffffffffffffffff16021790555060a0820151816005019080519060200190610908929190610949565b5060c08201518160060160006101000a81548160ff02191690831515021790555050506001600081548092919061093e906110a0565b919050555050505050565b8280546109559061106e565b90600052602060002090601f01602090048101928261097757600085556109be565b82601f1061099057805160ff19168380011785556109be565b828001600101855582156109be579182015b828111156109bd5782518255916020019190600101906109a2565b5b5090506109cb91906109cf565b5090565b5b808211156109e85760008160009055506001016109d0565b5090565b60006109ff6109fa84610f4e565b610f1d565b905082815260208101848484011115610a1757600080fd5b610a2284828561102c565b509392505050565b600082601f830112610a3b57600080fd5b8135610a4b8482602086016109ec565b91505092915050565b600081359050610a6381611187565b92915050565b60008060008060808587031215610a7f57600080fd5b600085013567ffffffffffffffff811115610a9957600080fd5b610aa587828801610a2a565b945050602085013567ffffffffffffffff811115610ac257600080fd5b610ace87828801610a2a565b9350506040610adf87828801610a54565b925050606085013567ffffffffffffffff811115610afc57600080fd5b610b0887828801610a2a565b91505092959194509250565b600060208284031215610b2657600080fd5b6000610b3484828501610a54565b91505092915050565b6000610b498383610d34565b905092915050565b610b5a81610fe4565b82525050565b610b6981610fe4565b82525050565b6000610b7a82610f8e565b610b848185610fb1565b935083602082028501610b9685610f7e565b8060005b85811015610bd25784840389528151610bb38582610b3d565b9450610bbe83610fa4565b925060208a01995050600181019050610b9a565b50829750879550505050505092915050565b610bed81610ff6565b82525050565b610bfc81610ff6565b82525050565b6000610c0d82610f99565b610c178185610fc2565b9350610c2781856020860161103b565b610c3081611176565b840191505092915050565b6000610c4682610f99565b610c508185610fd3565b9350610c6081856020860161103b565b610c6981611176565b840191505092915050565b6000610c81600f83610fd3565b91507f496e636f727265637420707269636500000000000000000000000000000000006000830152602082019050919050565b6000610cc1601383610fd3565b91507f4e4654206973206e6f7420666f722073616c65000000000000000000000000006000830152602082019050919050565b6000610d01601c83610fd3565b91507f5072696365206d7573742062652067726561746572207468616e2030000000006000830152602082019050919050565b600060e083016000830151610d4c6000860182610dde565b5060208301518482036020860152610d648282610c02565b91505060408301518482036040860152610d7e8282610c02565b9150506060830151610d936060860182610dde565b506080830151610da66080860182610b51565b5060a083015184820360a0860152610dbe8282610c02565b91505060c0830151610dd360c0860182610be4565b508091505092915050565b610de781611022565b82525050565b610df681611022565b82525050565b60006020820190508181036000830152610e168184610b6f565b905092915050565b60006020820190508181036000830152610e3781610c74565b9050919050565b60006020820190508181036000830152610e5781610cb4565b9050919050565b60006020820190508181036000830152610e7781610cf4565b9050919050565b6000602082019050610e936000830184610ded565b92915050565b600060e082019050610eae600083018a610ded565b8181036020830152610ec08189610c3b565b90508181036040830152610ed48188610c3b565b9050610ee36060830187610ded565b610ef06080830186610b60565b81810360a0830152610f028185610c3b565b9050610f1160c0830184610bf3565b98975050505050505050565b6000604051905081810181811067ffffffffffffffff82111715610f4457610f43611147565b5b8060405250919050565b600067ffffffffffffffff821115610f6957610f68611147565b5b601f19601f8301169050602081019050919050565b6000819050602082019050919050565b600081519050919050565b600081519050919050565b6000602082019050919050565b600082825260208201905092915050565b600082825260208201905092915050565b600082825260208201905092915050565b6000610fef82611002565b9050919050565b60008115159050919050565b600073ffffffffffffffffffffffffffffffffffffffff82169050919050565b6000819050919050565b82818337600083830152505050565b60005b8381101561105957808201518184015260208101905061103e565b83811115611068576000848401525b50505050565b6000600282049050600182168061108657607f821691505b6020821081141561109a57611099611118565b5b50919050565b60006110ab82611022565b91507fffffffffffffffffffffffffffffffffffffffffffffffffffffffffffffffff8214156110de576110dd6110e9565b5b600182019050919050565b7f4e487b7100000000000000000000000000000000000000000000000000000000600052601160045260246000fd5b7f4e487b7100000000000000000000000000000000000000000000000000000000600052602260045260246000fd5b7f4e487b7100000000000000000000000000000000000000000000000000000000600052604160045260246000fd5b6000601f19601f8301169050919050565b61119081611022565b811461119b57600080fd5b5056fea26469706673582212206cb8b08e87fbcd01b2d1a39b3f2ef74b4678457cb6d43e8cb4ed0181d52da4be64736f6c63430008000033",
  "linkReferences": {},
  "deployedLinkReferences": {}
}